:020000040800F2
:100000005004002049010008090E0008790D00087D
:10001000050E000851080008231600080000000023
:10002000000000000000000000000000A90F000810
:100030005508000800000000910E00082911000872
:100040006301000863010008630100086301000800
:1000500063010008630100086301000863010008F0
:1000600063010008630100086301000863010008E0
:1000700063010008630100086301000863010008D0
:1000800063010008630100086301000863010008C0
:1000900063010008630100086301000863010008B0
:1000A00063010008630100086301000863010008A0
:1000B0006301000863010008630100086301000890
:1000C0006301000863010008630100086301000880
:1000D00063010008051400086301000863010008BB
:1000E0006301000863010008630100086301000860
:1000F0006301000863010008630100086301000850
:10010000630100086301000863010008630100083F
:10011000630100086301000863010008630100082F
:10012000630100086301000863010008630100081F
:10013000DFF810D000F0C8F900480047191800088F
:10014000AFF300805004002006488047064800476F
:10015000FEE7FEE7FEE7FEE7FEE7FEE7FEE7FEE777
:10016000FEE7FEE7311100083101000840EA010313
:100170009B0703D009E008C9121F08C0042AFAD25D
:1001800003E011F8013B00F8013B521EF9D2704721
:10019000D2B201E000F8012B491EFBD270470022C9
:1001A000F6E710B513460A4604461946FFF7F0FF76
:1001B000204610BD0FB400B58DB010A909900B906A
:1001C00000914FF0FF300A9000200C9005480690F7
:1001D000054807906A4609A80F9900F047F90DB045
:1001E0005DF814FB89040008A70400082DE9FF5FEF
:1001F0001D464FF0FF3BD5E9014691465F464FF063
:100200000008A9697F1C01988847296A82468847A7
:100210000028F6D1BAF1FF3F0CD024F4C064002EC0
:1002200019DD600614D5BAF12B0F09D0BAF12D0FE4
:100230000ED103E0584604B0BDE8F09F44F480645A
:10024000A9697F1C01988847761E8246002E02DD30
:10025000BAF1300F03D0B9F1000F26D032E0A9690E
:10026000761E44F400747F1C019888478246002E55
:1002700005DDBAF1780F06D0BAF1580F03D0B9F105
:10028000000F10D01EE0B9F1000F02D0B9F1100F2D
:1002900018D1A969761E24F400747F1C0198884740
:1002A0008246102002E0082000E00A20814609E092
:1002B00008FB0908A969761E44F400747F1C0198A4
:1002C00088478246002E05DD4946504600F0BAF8C0
:1002D0000028EDDAE96901988847A00502D46FF09B
:1002E0000100A8E7E00725D1600613D5600502D517
:1002F000C8F1000000E0404629680A1D2A6009682C
:10030000220501D5087015E0220701D5088011E00B
:1003100008600FE02868011D29600068210502D5EA
:1003200080F8008006E0210702D5A0F8008001E0F7
:10033000C0F8008038467EE72DE9FF5FD2E901A7CB
:100340004FF00008916999461446DDF838B04646EA
:1003500001988847054659EA0B0005D009E0A169D4
:10036000761C019888470546216A28468847002858
:10037000F5D1681C03D05FEACA7005D015E04FF0D4
:10038000FF3004B0BDE8F09F2068011D2160D0F867
:1003900000800AE05FEACA7001D108F8015BA16938
:1003A000761C7F1E019888470546002F1ADD681CC1
:1003B00018D0B9F1000F0DD0E81705EBD06042114D
:1003C00020F01F0059F822102A1A01209040014203
:1003D000E0D107E0BBF1000FDCD1216A2846884755
:1003E0000028D7D0E16901988847BBF1000F07D1F9
:1003F000002E05DD5FEACA7002D1002188F80010E6
:10040000A068B84203DDBBF1000F03D017B16FF055
:100410000100B6E73046B4E730B50B460146002090
:100420002022012409E021FA02F59D4205D303FAB6
:1004300002F5491B04FA02F52844151EA2F1010237
:10044000F1DC30BD3A2800D2303820F02002412AB9
:1004500001D3A2F13700884201D34FF0FF3070473B
:10046000026811441378016018467047D16004494E
:1004700051610449116200211161114600F03CB83C
:1004800061040008ED040008426842B1016811F8F7
:10049000013B23B1521EC0E90012184670470121EA
:1004A000C160881E704742685AB1C368016843B989
:1004B00083688B4205D0491E521CC0E900120020FF
:1004C00070474FF0FF307047064C074D06E0E0687C
:1004D00040F0010394E8070098471034AC42F6D38B
:1004E000FFF72AFEE018000800190008C0B24FF418
:1004F000F05100F099B900002DE9F34F8BB04FF0A7
:10050000000801F10C000C464FF0010B46460DF1BE
:10051000080A01906269012101989047051E2DD0BB
:10052000252D2CD0216A8847C0B16269012101982C
:100530009047216A88470028F7D1411E62690198D7
:10054000904700E0761CA1690B988847216A88478C
:100550000028F7D1E1690B988847DBE7A1690B9880
:1005600088470746A84201D1761CD3E7E1690B987A
:1005700088477F1C02D1B8F1000F6FD047E10027F8
:1005800062693D463946019890472A2804D162693C
:100590000121019890470125DFF8889262690121C5
:1005A00001989047A0F130010A290AD24F45E5DCB5
:1005B00007EB870100EB4107303FDFD445F0100522
:1005C000ECE7E90601D46FF000476C280AD04C280C
:1005D00014D0682815D06A280DD074281CD07A2829
:1005E0001AD01DE062690121019890476C2802D061
:1005F00045F0040514E045F002050DE045F0200546
:100600000AE06269012101989047682802D045F00C
:10061000080505E045F400656269012101989047ED
:10062000C4E9015765283DD019DC58287AD00CDC84
:10063000452837D004DC252826D0412831D131E0A7
:1006400046282FD047282CD12CE05B2877D0612872
:1006500028D063287CD0642823D15AE0D1E06F28C9
:1006600048D008DC66281DD067281BD0692821D017
:100670006E2816D127E0702845D0732868D07528D9
:1006800047D078280DD14DE0A1690B9888470546E1
:1006900025283FF469AFE1690B9888476D1C3FF44A
:1006A0006AAFB4E023466A466FF001000B99AFF3DE
:1006B00000809FE045F040006060A80723464FF0AF
:1006C000000236D43EE0E8077FF447AF2068011D02
:1006D00021600068290501D506701BE7290701D5AF
:1006E000068017E7A90703D5F117C0E9006111E7F4
:1006F00006600FE745F040006060A80723464FF012
:10070000080216D41EE040F60E0125EA01006060E2
:1007100016E045F040006060A80723464FF00A024B
:1007200007D40FE045F040006060A80708D52346D5
:1007300010226FF001000B99AFF300805AE007E040
:10074000234610226FF001000B99FFF74FFD51E097
:100750004FF000094F464B46632802D05B2807D074
:1007600041E02079C00601D40120A06001273AE0D1
:1007700062690121019890475E2805D14FF0010977
:100780006269494601989047216939B900210A46B2
:10079000534643F82120491C0829FADBB0B32169EC
:1007A00069B9C11700EBD16253110AEB830122F042
:1007B0001F02821A01200B68904003430B6062699C
:1007C0000121019890475D28E8D1B9F1000F09D0C7
:1007D0000020514651F82020D24341F82020401CEF
:1007E0000828F7DB02AB224600976FF001000B9957
:1007F000FFF7A2FD00280CDA401C08D1BBF1000F66
:1008000005D04FF0FF300DB0BDE8F08FFFE7404658
:10081000F9E7E90701D108F1010806444FF0000BA0
:1008200078E60000CCCCCC0C7F2801D9002208E06F
:10083000064A02EB5002C007127800D1120902F0FA
:100840000F0201209040084070470000A0180008E7
:1008500000BFFEE77047000086B01422124901A8CD
:10086000FFF784FC01A9114800F052FD1BE010A124
:100870000E4800F0B9FD13A10C4800F0B5FD14A11D
:100880000A4800F0B1FD15A1084800F0ADFD17A120
:10089000064800F0A9FD18A1044800F0A5FD4FF49A
:1008A000FA6000F0A1FFE2E74818000800380140B4
:1008B00047726F7570204D656D626572733A0D0AEF
:1008C00000000000312E20416C6963650D0A0000B4
:1008D000322E20426F620D0A00000000332E2043AA
:1008E0006861726C69650D0A00000000342E2044B6
:1008F000617669640D0A00002D2D2D2D2D2D2D2DD5
:100900002D2D2D2D2D2D2D2D0D0A000086B01422FC
:100910000C4901A8FFF72AFC01A90B4800F0F8FCDC
:100920000AA1094800F060FD0BE0074800F034FD23
:1009300038B1054800F03BFD04462146024800F06E
:1009400044FDF2E75C180008003801404563686F19
:10095000204D6F6465202D2053656E6420616E7993
:10096000206368617261637465723A0D0A00000069
:1009700086B01422294901A8FFF7F8FB01A92848ED
:1009800000F0C6FC27A1264800F02EFD2AA124482D
:1009900000F02AFD2FA1224800F026FD34A12048B6
:1009A00000F022FD39A11E4800F01EFD00F0E6F91E
:1009B00033E03D48007800282FD000203A490870E5
:1009C0003A480078312806D032280CD0332812D08B
:1009D000342820D117E0012000F0EEF934A11048AE
:1009E00000F002FD18E0022000F0E6F933A10C4807
:1009F00000F0FAFC10E0042000F0DEF932A1084813
:100A000000F0F2FC08E0082000F0D6F931A104481B
:100A100000F0EAFC00E000BF00BFCAE77018000861
:100A2000003801404C454420436F6E74726F6C2057
:100A30004D6F64653A0D0A0053656E6420273127B7
:100A400020746F20746F67676C65204C4544310DCE
:100A50000A00000053656E642027322720746F203F
:100A6000746F67676C65204C4544320D0A000000C6
:100A700053656E642027332720746F20746F676777
:100A80006C65204C4544330D0A00000053656E64CC
:100A90002027342720746F20746F67676C65204CA3
:100AA0004544340D0A000000010000200000002031
:100AB0004C454431204F4E0D0A0000004C45443255
:100AC000204F4E0D0A0000004C454433204F4E0D80
:100AD0000A0000004C454434204F4E0D0A0000002F
:100AE0008AB01422194905A8FFF740FB05A9184848
:100AF00000F00EFC17A1164800F076FC1AA114486D
:100B000000F072FC20E024480078E8B1002022497F
:100B10000870102201A9214800F0BCFA40B920A1B8
:100B20000B4800F061FC01A9094800F05DFC03E0FE
:100B30001CA1074800F058FC002022490870202121
:100B40001648FFF72CFB00BFDDE700008418000803
:100B50000038014053696D706C652043616C6375AA
:100B60006C61746F720D0A00456E74657220657851
:100B70007072657373696F6E2028652E672E2C2046
:100B8000322B322920616E642070726573732045A8
:100B90006E7465723A0D0A000100002030000020DA
:100BA000203D20000D0A4572726F723A20496E7620
:100BB000616C69642065787072657373696F6E0D1E
:100BC0000A000000020000202DE9F0410246002545
:100BD0000026002000230024002791F803C00CF019
:100BE0000F0591F803C00CF0100CBCF1000F03D0FE
:100BF00091F802C04CEA050591F800C0BCF1000F65
:100C000031D0146800202BE04FF0010C0CFA00F3F7
:100C1000B1F800C00CEA03069E4220D183004FF0D9
:100C20000F0C0CFA03F7BC4305FA03FC4CEA04046E
:100C300091F803C0BCF1280F06D14FF0010C0CFA5B
:100C400000FCC2F814C00AE091F803C0BCF1480FE0
:100C500005D14FF0010C0CFA00FCC2F810C0401C8A
:100C60000828D1D31460B1F800C0BCF1FF0F34DD07
:100C7000546800202EE000F1080C4FF0010808FA3B
:100C80000CF3B1F800C00CEA03069E4221D18300A8
:100C90004FF00F0C0CFA03F7BC4305FA03FC4CEAC7
:100CA000040491F803C0BCF1280F05D100F1080C31
:100CB00008FA0CF8C2F8148091F803C0BCF1480F90
:100CC00007D100F1080C4FF0010808FA0CF8C2F83F
:100CD0001080401C0828CED35460BDE8F08100008D
:100CE000F0B50A46002300240021002500F000464C
:100CF000B6F1004F02D11D4EF16901E01B4E716843
:100D0000C0F3034583B200F44016B6F5401F08D186
:100D100021F07061154E766826F07066134F7E6084
:100D200012E000F48016B6F5801F06D1032606FAFD
:100D300005F4A14341F0706106E0460D360103FA67
:100D400006F6B14341F0706122B1460D360103FA57
:100D500006F6314300F00046B6F1004F02D1034ED3
:100D6000F16101E0014E7160F0BD00000000014042
:100D7000416170470161704700BFFEE710B5002078
:100D800000F01AF810BD000008B50121102000F095
:100D900091F800F033FDADF8000010208DF803004D
:100DA00003208DF8020069460248FFF70DFFFFF7A8
:100DB000E5FF08BD001001402DE9F0410646002581
:100DC00000F01CFD8046002409E00120A0403040D6
:100DD00018B10A4830F814000543601CC4B2042C52
:100DE000F3D328EA050729460548FFF7C3FF39462C
:100DF0000348FFF7BDFFBDE8F08100009818000828
:100E00000010014000BFFEE77047000070B50021F0
:100E100000230F22C47804B3154C246804F4E06462
:100E2000C4F5E064210AC1F10403CA40447804FA1D
:100E300003F184781440214309010E4C0678A15532
:100E4000047804F01F050124AC4005786D11AD0055
:100E500005F1E025C5F8004109E0047804F01F051C
:100E60000124AC40044D0678761145F8264070BD4B
:100E70000CED00E000E400E080E100E00249014305
:100E8000024A1160704700000000FA050CED00E016
:100E90007047000029B1064AD2690243044BDA6167
:100EA00004E0034AD2698243014BDA6170470000D3
:100EB0000010024029B1064A92690243044B9A612C
:100EC00004E0034A92698243014B9A617047000033
:100ED0000010024030B500210022002400232D4DD7
:100EE0006D6805F00C0121B1042905D0082923D132
:100EF00005E0294D056022E0274D05601FE0254DE6
:100F00006D6805F47012234D6D6805F48034022578
:100F100005EB92421CB9214D554305600BE01D4D78
:100F20006D6805F400351DB11C4D5543056002E0A8
:100F3000194D5543056002E0174D056000BF00BF25
:100F4000144D6D6805F0F0010909154D6B5C0568DD
:100F5000DD4045600F4D6D6805F4E061090A104DF4
:100F60006B5C4568DD4085600A4D6D6805F4605135
:100F7000C90A0B4D6B5C4568DD40C560054D6D6869
:100F800005F44041890B074D6B5CC568B5FBF3F573
:100F9000056130BD0010024000127A0000093D00DA
:100FA0000800002018000020704710B500F002F87B
:100FB00010BD00000CB5002001900090334800687F
:100FC00040F480303149086000BF3048006800F4C8
:100FD000003000900198401C0190009818B90198C9
:100FE000B0F5A06FF1D12948006800F4003010B1CD
:100FF0000120009001E0002000900098012843D1DA
:101000002348006840F01000214908600846006845
:1010100020F0030008600846006840F00200086005
:101020001A484068194948600846406848600846C0
:10103000406840F4806048600846406820F47C10B6
:1010400048600846406840F4E81048600846006878
:1010500040F08070086000BF0C48006800F000702D
:101060000028F9D00948406820F00300074948608B
:101070000846406840F00200486000BF03484068EE
:1010800000F00C000828F9D10CBD0000001002404F
:10109000002002402DE9FF4107460D46164602A8F2
:1010A00001AB03AA1CA100903846FFF783F8032880
:1010B00004D04FF0FF3004B0BDE8F0819DF804008B
:1010C0002A280ED02B2804D02D2806D02F2817D15F
:1010D0000CE0DDE90210441815E0DDE90210441AC5
:1010E00011E0DDE9021000FB01F40CE0029810B9F8
:1010F0004FF0FF30DFE7DDE9021090FBF1F402E092
:101100004FF0FF30D7E700BF234605A231462846FF
:1011100000F08AFA0020CEE72564256325640000EC
:1011200025640D0A0000000010B500F06FF810BD36
:1011300010B51348006840F00100114908600846E6
:101140004068104908400E494860084600680E494A
:1011500008400B4908600846006820F480200860B9
:101160000846406820F4FE0048604FF41F00886085
:10117000FFF71BFF4FF000600449086010BD00003E
:10118000001002400000FFF8FFFFF6FE08ED00E04F
:1011900010B54FF4A060FFF771FE00F003F8FFF701
:1011A000F3FD10BD30B5164800684FF47A72B0FBFD
:1011B000F2F1B1F1807F01D301201DE021F07F40E9
:1011C000401E4FF0E022506150170F22002807DA2E
:1011D00013071D0E0B4B00F00F04241F1D5503E0D9
:1011E00013071C0E084B1C5400BF00204FF0E022D8
:1011F000906107201061002008B100BFFEE730BDFC
:101200001C00002018ED00E000E400E00448006845
:1012100020B103480068401E014908607047000083
:101220000400002038B504460D46012240F2255145
:10123000204600F05CF91048844203D125208DF847
:1012400000000CE00D48844203D126208DF80000F8
:1012500005E00B48844202D127208DF800008DF86C
:10126000015000208DF8020001208DF8030068462F
:10127000FFF7CCFD38BD00000038014000440040BD
:101280000048004038B50446ECB901210420FFF7BE
:1012900011FE4FF40070ADF8000018208DF8030027
:1012A00003208DF8020069461748FFF78DFC4FF4C4
:1012B0008060ADF8000004208DF8030069461248F4
:1012C000FFF782FC1EE001210920FFF7F3FD012159
:1012D0000420FFF705FD4020ADF8000018208DF830
:1012E000030003208DF8020069460848FFF76CFCF4
:1012F0008020ADF8000004208DF803006946034803
:10130000FFF762FC38BD000000080140000C0140FE
:101310007FB505460C461D48854204D1012188034E
:10132000FFF7C8FD0EE01A48854204D101214804A8
:10133000FFF7B0FD06E01748854203D1012188047C
:10134000FFF7A8FD2078FFF79DFF606800902089D7
:10135000ADF804006089ADF80600A089ADF808007A
:101360000020ADF80C00E089ADF80A006946284677
:1013700000F0E2F8207C18B101212846FFF752FF67
:101380000121284600F070F87FBD000000380140C0
:10139000004400400048004010B50446202120468B
:1013A00000F06EF808B1012010BD0020FCE710B578
:1013B000044600BF2021204600F062F80028F9D042
:1013C000204600F025F9C0B210BD70B504460D46A8
:1013D00000BF8021204600F053F80028F9D02946AC
:1013E000204600F01AF970BD70B505460C4604E0C1
:1013F00014F8011B2846FFF7E8FF20780028F7D1F2
:1014000070BD000010B540F22551134800F045F8BA
:1014100000B3114800F0FCF8C4B20D2C01D00A2C26
:1014200007D10E480078002813DD01200C49087010
:101430000FE00A4800781F280BDA08480178007886
:10144000401C064A10700748445400200549127891
:10145000885400BF10BD0000003801400200002089
:10146000010000203000002021B1828942F40052A6
:10147000828104E082894DF6FF731A4082817047B1
:1014800002460020B1F5007F00D100BF13880B4059
:101490000BB1012000E00020704770B50246002427
:1014A00000230025002040F66A16B14200D100BF9B
:1014B000C1F3421501F01F03012606FA03F3012DC3
:1014C00002D19689334006E0022D02D1168A3340BC
:1014D00001E0968A33400C12012606FA04F41688BD
:1014E000344013B10CB1012000E0002070BDF0B514
:1014F0000346002400260025002040F66A17B94262
:1015000000D100BF1846C1F3421401F01F060127A5
:1015100007FA06F5012C01D10C3004E0022C01D1B0
:10152000103000E014301AB107682F43076002E062
:101530000768AF430760F0BD2DE9F04786B0054668
:101540000E460024A24600BFA1460027B08900B184
:1015500000BF2F462C8A4CF6FF700440F0880443ED
:101560002C82AC894EF6F3100440B08831890843D0
:10157000718908430443AC81AC8A4FF6FF400440B4
:10158000B0890443AC8201A8FFF7A4FC1F4887423E
:1015900002D1DDF810A001E0DDF80CA0A88900F46C
:1015A000004040B10AEBCA0000EB0A103168490064
:1015B000B0FBF1F807E00AEBCA0000EB0A10316853
:1015C0008900B0FBF1F86420B8FBF0F004012009B9
:1015D000642101FB1089A88900F4004040B1322049
:1015E00000EBC900B0FBF1F000F00700044308E095
:1015F000322000EB09106421B0FBF1F000F00F0085
:1016000004432C8106B0BDE8F0870000003801409B
:1016100001468888C0F308007047C1F30802828041
:10162000704700BFFEE700000FB47CB50C0009ADA9
:1016300001D0611E00E00021CDE90001064B6A46A1
:101640002946089800F01AF8002C02D0009A0021D0
:1016500011707CBC5DF814FBD117000802E008C8CB
:10166000121F08C1002AFAD170477047002001E01C
:1016700001C1121F002AFBD1704700002DE9FF4F66
:1016800089B09B460446002506E025280BD05A4623
:101690000B999047641C6D1C20780028F5D10DB083
:1016A0002846BDE8F08F0027B8460122474900E0F0
:1016B000074314F8013F203B02FA03F00842F7D138
:1016C00020782E2819D114F8010F47F004072A2892
:1016D0000ED06FF02F022078A0F1300109290CD82C
:1016E00008EB880102EB410100EB0108641CF2E702
:1016F0000A98641C50F8048B0A9020780028CED0F9
:10170000642808D0692806D075281ED05A460B993F
:1017100090476D1C58E00A994FF00A0901C90A91D7
:10172000002802DA40422D2102E0390504D52B21A0
:101730008DF82010012103E0F90704D02021F7E7FC
:101740008A4608AE0DE00021FAE70A994FF00A092F
:1017500001C90A91F7E74946FEF75EFE303106F807
:10176000011D0028F7D1ADEB060000F12009780734
:1017700001D44FF00108C84502DDA8EB090000E0E4
:1017800000208046002706E008A85A46C05D0B9955
:1017900090476D1C7F1C5745F6DB04E030205A460D
:1017A0000B9990476D1CB8F10001A8F10108F5DC18
:1017B00005E016F8010B5A460B9990476D1CB9F1DC
:1017C0000001A9F10109F4DC641C65E709280100A6
:1017D0004A68002A06D00A68531C0B6010704868DB
:1017E000401E4860704700000349086000BF02497E
:1017F00009680029FBD17047040000200020002167
:1018000005E0044A32F8112010434A1CD1B20429E1
:10181000F7D3704798180008FFF7BAFC0420012896
:1018200006D0022806D0032806D0042808D105E0F7
:10183000FFF712F8FFF76AF8FFF79AF8FFF750F989
:1018400000BF00BF00BFFEE70000000000C20100B3
:101850000000000000000800000000000000000080
:1018600000C201000000000000000C0000000000A9
:101870000000000000C201000000000000000400A1
:10188000010000000000000000C201000000000094
:1018900000000C000100000001000200040008002C
:1018A000DDDDDDDDDCBBBBDDDDDDDDDDDDDDDDDDAD
:1018B00098888888888888887777777777888888ED
:1018C0008555555666666666666666666668888885
:1018D0008333333222222222222222222228888D7E
:1018E0000019000800000020300000005C1600080D
:1018F0003019000830000020200400006C16000899
:1019000000000000000000000000000001020304CD
:1019100001020304060708090204060800A24A049B
:10192000000000000000000001020304060708098F
:0400000508000149A5
:00000001FF
