:020000040800F2
:100000004804002031100008591900085B19000845
:100010005F19000863190008671900080000000054
:100020000000000000000000000000006B19000844
:100030006D190008000000006F1900087119000810
:100040004B1000084B1000084B1000084B10000824
:100050004B1000084B1000084B1000084B10000814
:100060004B1000084B1000084B1000084B10000804
:100070004B1000084B1000084B1000084B100008F4
:100080004B1000084B1000084B1000084B100008E4
:100090004B1000084B1000084B1000084B100008D4
:1000A0004B1000084B1000084B1000084B100008C4
:1000B0004B1000084B1000084B1000084B100008B4
:1000C0004B1000084B1000084B1000084B100008A4
:1000D0004B1000084B1000084B1000084B10000894
:1000E0004B1000084B1000084B1000084B10000884
:1000F0004B1000084B1000084B1000084B10000874
:100100004B1000084B1000084B1000084B10000863
:100110004B1000084B1000084B1000084B10000853
:100120004B1000084B1000084B1000084B10000843
:10013000DFF80CD001F03EFC00480047D918000859
:100140004804002030B943F2DB028100A1F1C04134
:100150000A6005E043F2D2028100A1F1C0410A60C9
:100160006FF07042411C8900A1F1C0410A6081001A
:10017000A1F1C041C1F80421704710280AD118210B
:100180004FF020421166402151664FF0FC319166DC
:10019000D16610E01821F74A116040214FF020424B
:1001A000C2F884104FF0FC31F24A083211604FF06F
:1001B0002042C2F88C1070471820EE4920310860A8
:1001C00000200906C1F8A4004FF0FC30E9492831AD
:1001D0000860091D0860091D08607047D0E9011218
:1001E0001143C26811430269114342691143826994
:1001F0001143C2691143026A1143426A1143826A80
:100200001143C26A1143026B114302689200A2F1CA
:10021000C0421160816808290BD101688900A1F1F1
:10022000C041096841F0400201688900A1F1C04164
:100230000A60416B0968426B526841EA0211426BE5
:10024000926841EA0221426B928941EA0241426B83
:10025000128A41EA0251426B127D41EA0261426B0D
:10026000926911430268521C9200A2F1C0421160CF
:10027000C16AB1F5804F1BD1816B0968826B5268EE
:1002800041EA0211826B926841EA0221826B128A72
:1002900041EA0251826B127D41EA0261826B9269EE
:1002A000114302689200A2F1C042C2F8041107E0B3
:1002B0006FF0704201688900A1F1C041C1F80421CA
:1002C000704730B5002100220023446844F0080440
:1002D00085682C43C5682C4305692C43456944EA6D
:1002E0004524856944EA4531C4692468C5696D6857
:1002F00044EA0524C5692D8944EA0544C5692D7B76
:1003000044EA0562046A2468056A6D6844EA0524C3
:10031000056A2D8944EA0544056A2D7B44EA056394
:100320000468102C05D14FF020442166A266E366D4
:1003300008E0904C21604FF02044C4F888208D4C98
:100340000C34236030BD016841F01001426841EA7D
:100350004221826841EA4231864A20321160C168F6
:100360000968C268526841EA0221C268128941EAFA
:100370000241C268127B41EA02617E4A2832116062
:10038000016909680269526841EA02210269128919
:1003900041EA02410269127B41EA0261754A2C324C
:1003A0001160416909684269526841EA0221426963
:1003B000128941EA02414269127B41EA02614FF02F
:1003C0002042C2F8B0107047002101600221416054
:1003D00000218160C160016141618161C16101628F
:1003E0004FF480514162490081620021C162016382
:1003F0000F21426B1160426B5160FF21426B916093
:100400000F21426BD160426B1161426B516100213F
:10041000426B91610F21826B1160826B5160FF21F1
:10042000826B91600F21826BD160826B1161826B54
:1004300051610021826B91617047102101600021A0
:1004400041608160C160016141618161FC21C269DB
:100450001160C2695160C2699160C269D160026A6B
:100460001160026A5160026A9160026AD16070474D
:100470000021016041608160FC21C2681160C26896
:100480005160C2689160C268D160026911600269FE
:100490005160026991600269D160426911604269EC
:1004A0005160426991604269D160704751B18200E8
:1004B000A2F1C042126842F001038200A2F1C042E0
:1004C000136009E08200A2F1C04212682A4B1A4070
:1004D0008300A3F1C0431A60704799B1102808D176
:1004E0004FF02042126E42F004024FF020431A6691
:1004F0001DE0204A126842F004024FF02043C3F886
:10050000802014E0102809D14FF02042126E1A4BBF
:10051000DB1E1A404FF020431A6608E0154A1268A5
:10052000154BDB1E1A404FF02043C3F88020704764
:1005300048B110492031096841F004014FF02042D0
:10054000C2F8A01009E00B49203109680A4AD21EFE
:1005500011404FF02042C2F8A0107047B9B11028E6
:100560000CD14FF02042126E42F040024FF0204377
:100570001A661FE0800000A0FEFF0F00724A12689A
:1005800042F040024FF02043C3F8802012E01028D0
:1005900008D14FF02042126E6C4B1A404FF02043AE
:1005A0001A6607E0684A1268684B1A404FF0204309
:1005B000C3F88020704701460020102903D14FF076
:1005C0002042506F02E0604A14321068704710B544
:1005D000F2B1102807D14FF020435B6E0B434FF070
:1005E0002044636632E0B0F5807F08D1564B1B1D76
:1005F0001B680B434FF02044C4F8843026E0524B74
:1006000024331B680B434FF02044C4F8A4301DE092
:10061000102807D14FF020435B6E8B434FF02044EE
:10062000636613E0B0F5807F08D1474B1B1D1B6844
:100630008B434FF02044C4F8843007E0424B24330E
:100640001B688B434FF02044C4F8A43010BD10B594
:10065000024600200023102A03D14FF02044636E8D
:1006600009E0B2F5807F03D1374C241D236802E0F6
:10067000354C2434236803EA01040CB1012000E066
:10068000002010BD102807D14FF02042526E8A433F
:100690004FF020435A6613E0B0F5807F08D12A4A14
:1006A000121D12688A434FF02043C3F8842007E0EC
:1006B000254A243212688A434FF02043C3F8A4200D
:1006C000704770B502460020002300240025102A40
:1006D00003D14FF02046736E09E0B2F5807F03D15D
:1006E000194E361D336802E0174E2436336803EA8C
:1006F000010403EAD10514B10DB1012000E000208E
:1007000070BD102808D14FF02042526E22EAD1026B
:100710004FF020435A6615E0B0F5807F09D10A4AB0
:10072000121D126822EAD1024FF02043C3F8842040
:1007300008E0054A2432126822EAD1024FF0204331
:10074000C3F8A42070470000800000A0BFFF0F0086
:1007500010B50446CC48844208D10121042000F0A1
:100760002DFB0021042000F029FB46E0C74884420D
:1007700008D10121082000F021FB0021082000F011
:100780001DFB3AE0C248844208D10121102000F04C
:1007900015FB0021102000F011FB2EE0BD48844223
:1007A00008D10121202000F009FB0021202000F0C9
:1007B00005FB22E0B848844208D10121402000F026
:1007C000FDFA0021402000F0F9FA16E0B348844217
:1007D00008D10121802000F0F1FA0021802000F0F2
:1007E000EDFA0AE0AE48844207D10121801500F0FD
:1007F000E5FA0021A01500F0E1FA10BD10B50121C5
:10080000084600F0DBFA0021012000F0D7FA10BD05
:100810002DE9F04102460025002600200023002497
:10082000002791F803C00CF00F0591F803C00CF0FD
:10083000100CBCF1000F03D091F802C04CEA050582
:1008400091F800C0BCF1000F31D0146800202BE0FB
:100850004FF0010C0CFA00F3B1F800C00CEA0306EB
:100860009E4220D183004FF00F0C0CFA03F7BC43DB
:1008700005FA03FC4CEA040491F803C0BCF1280F0C
:1008800006D14FF0010C0CFA00FCC2F814C00AE0CB
:1008900091F803C0BCF1480F05D14FF0010C0CFAE0
:1008A00000FCC2F810C0401C0828D1D31460B1F875
:1008B00000C0BCF1FF0F34DD546800202EE000F1D1
:1008C000080C4FF0010808FA0CF3B1F800C00CEA6C
:1008D00003069E4221D183004FF00F0C0CFA03F760
:1008E000BC4305FA03FC4CEA040491F803C0BCF1D4
:1008F000280F05D100F1080C08FA0CF8C2F8148092
:1009000091F803C0BCF1480F07D100F1080C4FF07B
:10091000010808FA0CF8C2F81080401C0828CED351
:100920005460BDE8F0814FF6FF71018002218170B3
:100930000421C17070470246002093680B400BB140
:10094000012000E0002070470146886880B27047AF
:1009500002460020D3680B400BB1012000E00020CC
:1009600070470146C86880B27047016170474161B5
:1009700070470AB1016100E041617047C160704792
:100980004FF480320A4382618161826182698269A7
:10099000704702460020434B18684FF6807318409A
:1009A00040EA021008433F4B186070473E49C86157
:1009B0007047F0B50A46002300240021002500F00E
:1009C0000046B6F1004F02D1364EF16901E0354ED6
:1009D0007168C0F3034583B200F44016B6F5401FBA
:1009E00008D121F070612F4E766826F070662D4F89
:1009F0007E6012E000F48016B6F5801F06D1032653
:100A000006FA05F4A14341F0706106E0460D360197
:100A100003FA06F6B14341F0706122B1460D36018A
:100A200003FA06F6314300F00046B6F1004F02D15A
:100A30001C4EF16101E01B4E7160F0BD30B500222B
:100A40008B071C0F0F2303FA04F2164B08338C108C
:100A500053F824309343134C08348D1044F8253058
:100A600023468C1053F824308C07240F00FA04F42A
:100A700023430C4C08348D1044F8253030BD0A490E
:100A8000DC3108607047000000080140000C0140A4
:100A9000001001400014014000180140001C0140FA
:100AA000002001400000014000002042DF480068B3
:100AB00040F00100DD49086008464068DC49084014
:100AC000DA49486008460068DA490840D7490860B2
:100AD0000846006820F4802008600846406820F43A
:100AE000FE0048604FF41F0088607047CF490968D6
:100AF00021F48031CD4A11601146096821F480212A
:100B00001160B0F5803F03D0B0F5802F0ED106E024
:100B1000C649096841F48031C44A116007E0C349FD
:100B2000096841F4A021C14A116000E000BF00BF84
:100B3000704710B501460022002300204A11012A07
:100B400002D1BA4C236806E0022A02D1B74C236ACC
:100B500001E0B64C636A01F01F02012494401C407E
:100B60000CB1012000E0002010BD38B5002000903D
:100B70000024002500BF3120FFF7DBFF0546009869
:100B8000401C00900098B0F5A06F01D0002DF2D06D
:100B90003120FFF7CEFF08B1012400E000242046F9
:100BA00038BD01460020A14A106820F0F80040EA54
:100BB000C10010607047A0490860704702460020DD
:100BC0009A4B586820F47C1042EA01031843974B73
:100BD0005860704798490866704701460020934A5C
:100BE000506820F003000843506070478F48406809
:100BF00000F00C007047014600208C4A506820F03D
:100C0000F00008435060704701460020874A506852
:100C100020F4E06008435060704701460020834A9A
:100C2000506820F4605040EAC1005060704729B11C
:100C30007E4A527A02437D4B5A7204E07B4A527AD2
:100C400082437A4B5A7270477B49D83108607047AB
:100C500001460020754A506820F440400843506027
:100C600070470021714A20321170704A82F82010BA
:100C7000012802D004280AD104E001216B4A203265
:100C8000117005E00521694A2032117000E000BFB3
:100C900000BF70476949086070476449096A0143A9
:100CA000624A11627047654944390860704730B53F
:100CB00000210022002400235C4D6D6805F00C012A
:100CC00021B1042905D0082923D105E05C4D056038
:100CD00022E05B4D05601FE0544D6D6805F4701215
:100CE000524D6D6805F48034022505EB92421CB923
:100CF000544D554305600BE04C4D6D6805F40035CF
:100D00001DB1504D5543056002E04D4D5543056002
:100D100002E04B4D056000BF00BF444D6D6805F01B
:100D2000F0010909484D6B5C0568DD4045603F4DA9
:100D30006D6805F4E061090A434D6B5C4568DD4070
:100D400085603A4D6D6805F46051C90A3E4D6B5C93
:100D50004568DD40C560354D6D6805F44041890B3F
:100D60003A4D6B5CC568B5FBF3F5056130BD29B143
:100D70002E4A526902432D4B5A6104E02B4A5269B4
:100D800082432A4B5A61704729B1284A926902432B
:100D9000264B9A6104E0254A92698243234B9A616B
:100DA000704729B1214AD2690243204BDA6104E03D
:100DB0001E4AD26982431D4BDA61704729B11B4A32
:100DC000D2680243194BDA6004E0184AD2688243C1
:100DD000164BDA60704729B1144A12690243134B6B
:100DE0001A6104E0114A12698243104B1A6170477C
:100DF00012494039086070470F49C86470470B4971
:100E0000C87170470948406A40F0807007494862DD
:100E1000704701460020054A92680A400AB1012045
:100E200000E00020704701498872704700100240BE
:100E30000000FFF8FFFFF6FE00004242800442423D
:100E400000127A0000093D00000000201000002080
:100E50000CB50020019000906C48006840F4803090
:100E60006A49086000BF6948006800F400300090DB
:100E70000198401C0190009818B90198B0F5A06F36
:100E8000F1D16248006800F4003010B101200090F8
:100E900001E0002000900098012843D15C480068E0
:100EA00040F010005A4908600846006820F003002E
:100EB00008600846006840F0020008605348406837
:100EC000524948600846406848600846406840F417
:100ED000806048600846406820F47C1048600846FE
:100EE000406840F4E81048600846006840F08070B0
:100EF000086000BF4548006800F000700028F9D085
:100F00004248406820F00300404948600846406875
:100F100040F00200486000BF3C48406800F00C0010
:100F20000828F9D10CBD10B5FFF792FF10BD10B520
:100F30003648006840F001003449086008464068BF
:100F40003449084031494860084600683249084041
:100F50002E4908600846006820F480200860084692
:100F6000406820F4FE0048604FF41F008860FFF7DF
:100F7000DAFF4FF000602949086010BD10B500216C
:100F800000200022214B5B6803F00C0121B10429F1
:100F900006D0082928D107E0214B224C236027E006
:100FA0001F4B204C236023E0184B5B6803F4701048
:100FB000164B5B6803F48032022303EB904022B9A6
:100FC000194B4343174C23600DE0104B5B6803F44F
:100FD000003323B1144B4343124C236003E0104B06
:100FE0004343104C236003E00D4B0E4C236000BFC5
:100FF00000BF064B5B68C3F303130C4CE15C094B69
:101000001B68CB40074C236010BD0000001002405D
:10101000002002400000FFF8FFFFF6FE08ED00E0B0
:1010200000127A001400002000093D001800002082
:101030000648804706480047FEE7FEE7FEE7FEE772
:10104000FEE7FEE7FEE7FEE7FEE7FEE72F0F0008FC
:101050003101000830B5264800684FF47A72B0FBC1
:10106000F2F1B1F1807F01D301201DE021F07F403A
:10107000401E4FF0E022506150170F22002807DA7F
:1010800013071D0E1B4B00F00F04241F1D5503E01A
:1010900013071C0E184B1C5400BF00204FF0E02219
:1010A000906107201061002008B100BFFEE730BD4D
:1010B0001249086000BF114909680029FBD1704737
:1010C000002106E0082100BF0A1EA1F1010399B228
:1010D000FAD1021EA0F10100F4D170470748006860
:1010E00020B106480068401E0449086070470000AF
:1010F0001400002018ED00E000E400E028000020CB
:1011000008B501211020FFF73FFE0F20ADF80000C9
:1011100010208DF8030003208DF8020069460A486C
:10112000FFF776FB01210848FFF71FFC0221064864
:10113000FFF71BFC04210448FFF717FC08210248B5
:10114000FFF713FC08BD000000100140FE490880B5
:101150007047FD49891C0880704708B5FA48801C13
:1011600000880090BDF8000008BDF74A1080921C6E
:101170001180704710B504462046FFF7E7FF0520B1
:10118000FFF79EFFFFF7E9FF10BDF0480089EE4929
:1011900008807047EC49891C0880704700BF011E19
:1011A000A0F10102D0B2FAD1704700B5E7488088BB
:1011B00049F24131884211D0E448808846F6040162
:1011C00088420BD0E148808845F21031884205D032
:1011D000DE48808841F66311884202D12920FFF75A
:1011E000B5FF00BD00B5D948808849F24131884239
:1011F00011D0D648808846F6040188420BD0D348E7
:10120000808845F21031884205D0D048808841F668
:101210006311884202D12820FFF798FF00BD00B576
:1012200002460B46C948808841F66311884246D180
:10123000C6488079A8B9C5480088401E801A82B285
:10124000C2494889FFF782FF0020FFF782FF002094
:10125000FFF77FFF1012FFF77CFFD0B2FFF779FF97
:1012600016E0BA494889FFF771FF1012FFF771FFC6
:10127000D0B2FFF76EFFB5490988491EC1F30F20B0
:10128000FFF767FFB1490978491EC8B2FFF761FF50
:10129000AE498889FFF75AFF1812FFF75AFFD8B2F4
:1012A000FFF757FFA9494988491EC1F30F20FFF7EF
:1012B00050FFA6498978491EC8B2FFF74AFF00BD12
:1012C00030B5044600230025A0488079C0B9082C19
:1012D00015D2DFE804F00406080A0C0E10120624EA
:1012E0000DE007240BE0042409E0052407E00124B5
:1012F00005E0002403E0032401E0022400BF00BF56
:101300009248808841F66311884251D1082C1CD242
:10131000DFE804F00406090C0F12151800BF14E0F2
:1013200043F0800311E043F040030EE043F0C003BC
:101330000BE043F0200308E043F0600305E043F0D6
:10134000A00302E043F0E00300BF00BF19462846B7
:10135000FFF70BFF7D494889FFF7F8FE0020FFF7F4
:10136000F8FE0020FFF7F5FE78490988491EC1F311
:101370000F20FFF7EEFE75490978491EC8B2FFF746
:10138000E8FE72498889FFF7E1FE0020FFF7E1FEE1
:101390000020FFF7DEFE6D494988491EC1F30F208A
:1013A000FFF7D7FE69498978491EC8B2FFF7D1FE19
:1013B00030BD10B50446DCB9002064498871F020C6
:1013C00008804FF4A07048800846808841F6631179
:1013D000884228D12C205D4908812B2048812A2071
:1013E00088814FF4F07008804FF4487048801AE00C
:1013F0000120564988714FF4A0700880F020488081
:101400000846808841F6631188420CD12C204F4950
:1014100008812A2048812B2088814FF44870088059
:101420004FF4F07048800020FFF74AFF10BD70B500
:10143000044600264548058840884543434880883F
:1014400046F60401884216D140488079012812D11D
:1014500000203E4988712A2048812B208881002164
:101460000846FFF7DCFE0120384988712B204881AF
:101470002A20888103E000210846FFF7D0FEFFF70D
:1014800084FE002603E03048801C0480761CAE42B7
:10149000F9D370BD00B59FB001210802FFF767FCCA
:1014A00001214FF4B470FFF76FFC1820ADF87800FD
:1014B00010208DF87B0003208DF87A001EA92448A7
:1014C000FFF7A6F910212248FFF751FA4FF4FA70FE
:1014D000FFF7EEFD10211E48FFF747FA4CF233707C
:1014E000ADF8780018208DF87B0003208DF87A0085
:1014F0001EA91848FFF78CF94FF68070ADF87800F8
:1015000018208DF87B0003208DF87A001EA9104862
:10151000FFF77EF941F20100ADF8780018208DF850
:101520007B0003208DF87A001EA90B48FFF770F9A5
:1015300001200890002009900F200A9000200B90B5
:101540000C900D900E9009E0FE07006C3400002016
:101550000018014000140140002001400190029059
:101560000320039000200490059006900790062029
:101570000F900020109011901020129000201390D6
:1015800015901490169017904FF4805018900020EA
:1015900019904FF480401A9000201B9008A81C90CE
:1015A00001A81D900FA8FEF719FE01210620FEF7E5
:1015B0007DFF6420FFF77CFDA120FFF7C7FDFFF74B
:1015C000CCFDC2498880FFF7C8FDC0498880084625
:1015D00080884FF6FF7101EA0020BC498880FFF740
:1015E000BCFDBA4989880843B84988800846808884
:1015F00045F26171884203D141F66310B349888096
:10160000B248808841F6631188427DD12B20FFF7D4
:101610009DFD0020FFF79DFD0A20FFF751FDE22010
:10162000FFF794FD1D20FFF794FD0220FFF791FDC9
:101630000420FFF78EFD6420FFF742FDE020FFF756
:1016400085FD0120FFF785FD0A20FFF731FDE02031
:10165000FFF77CFD0320FFF77CFD0C20FFF728FD42
:101660000120FFF773FD0A20FFF722FDE620FFF7B8
:101670006DFD0020FFF76DFDD920FFF76AFD1620F4
:10168000FFF767FDB020FFF761FD2020FFF761FD48
:101690000020FFF75EFD0120FFF75BFD40F2DF1049
:1016A000FFF757FD0120FFF754FD40F20F10FFF741
:1016B00050FD0020FFF74DFDB420FFF747FD02204D
:1016C000FFF747FD40F21220FFF743FD0020FFF730
:1016D00040FD2B20FFF73DFD0A20FFF73AFD0020DB
:1016E000FFF737FD0020FFF734FD0020FFF731FD45
:1016F000B620FFF72BFD0120FFF72BFD40F21F1056
:10170000FFF727FD002000E04CE0FFF722FD0C2052
:10171000FFF71FFD0A20FFF71CFD0020FFF719FD52
:101720000420FFF716FDBA20FFF710FD0520FFF794
:1017300010FDB820FFF70AFD0720FFF70AFD012082
:10174000FFF707FDF020FFF701FD0320FFF701FD84
:101750002920FFF7FBFCD020FFF7F8FC0D20FFF756
:10176000F8FCBE20FFF7F2FC0620FFF7F2FC802019
:10177000FFF7EFFC0120FFF7ECFCF020FFF7E9FC9E
:101780000020FFF7E6FC0020FFF7E3FCB820FFF79E
:10179000DDFC0320FFF7DDFC0120FFF7DAFC292048
:1017A000FFF7D4FC0120FFF704FE08214848FFF7AB
:1017B000DCF84FF6FF70FFF73AFE1FB000BD2DE9D1
:1017C000FC4F05460E4617469846DDF82C90002043
:1017D00001903E48808846F60401884229D13B4862
:1017E0008079012825D1AB46354638480088C01B92
:1017F000401E86B2474635480088A0EB0B00401ECD
:101800001FFA80F80020314988712A2048812B2056
:10181000888143463A4631462846CDF80090FFF786
:10182000CEFF0120294988712B2048812A208881F8
:101830001CE0781B401C80B20190344614E0214625
:101840002846FFF7ECFCFFF7A0FC4FF0000A06E08B
:101850002048A0F800900AF101001FFA80FA0198D0
:101860008245F5DB601C84B24445E8DDBDE8FC8FB1
:101870002DE9F84F07460D4690469946DDF828B009
:10188000A8EB0700401C1FFA80FAA9EB0500401CDA
:1018900080B20090002414E0281981B23846FFF786
:1018A000BEFCFFF772FC002607E004FB0A603BF871
:1018B000100008490880701C86B25645F5DB601C94
:1018C00084B200988442E7DBBDE8F88F3400002042
:1018D000001801400008006CFFF729FBFFF7BAFB76
:1018E000FFF70EFCFFF7D6FD4FF47840FFF79FFDA2
:1018F0004FF47A70FFF7DCFB4FF4FC60FFF797FDC5
:101900004FF47A70FFF7D4FB1F20FFF790FD4FF4E0
:101910007A70FFF7CDFB4FF6E070FFF788FD4FF4CC
:101920007A70FFF7C5FB4FF6FF70FFF780FD4FF4AD
:101930007840084908804FF47A70FFF7B9FB4FF4FC
:10194000FC60FFF774FD4FF47A70FFF7B1FB00BF46
:10195000FEE700002C000020704700BFFEE700BF3C
:10196000FEE700BFFEE700BFFEE770477047704725
:1019700010B5FFF7B3FB0D480068401C0B49086029
:1019800008460068B0F5FA7F0FD9002008600121F1
:101990000748FEF7DDFF08B9012000E000200446FB
:1019A000224601210248FEF7E4FF10BD300000206E
:1019B00000100140064C074D06E0E06840F00103CE
:1019C00094E8070098471034AC42F6D3FEF7B4FB16
:1019D000F8190008181A000802E008C8121F08C108
:1019E000002AFAD170477047002001E001C1121FA0
:1019F000002AFBD170470000181A000800000020E0
:101A000034000000D81900084C1A000834000020E7
:101A100014040000E819000800000000010203049B
:101A200001020304060708090204060800A24A048A
:101A3000000000000000000001020304060708097E
:0C1A4000000000000000FFFF000000009C
:0400000508001031AE
:00000001FF
