:020000040800F2
:100000006004002005110008C5140008C71400088A
:10001000CB140008CF140008D3140008000000001F
:10002000000000000000000000000000D7140008DD
:10003000D914000800000000DB140008DD140008DB
:100040001F1100081F1100081F1100081F110008D0
:100050001F1100081F1100081F1100081F110008C0
:100060001F1100081F1100081F1100081F110008B0
:100070001F1100081F1100081F1100081F110008A0
:100080001F1100081F1100081F1100081F11000890
:100090001F1100081F1100081F1100081F11000880
:1000A0001F1100081F1100081F1100081F11000870
:1000B0001F1100081F1100081F1100081F11000860
:1000C0001F1100081F1100081F1100081F11000850
:1000D0001F1100081F1100081F1100081F11000840
:1000E0001F1100081F1100081F1100081F11000830
:1000F0001F1100081F1100081F1100081F11000820
:100100001F1100081F1100081F1100081F1100080F
:100110001F1100081F1100081F1100081F110008FF
:100120001F1100081F1100081F1100081F110008EF
:10013000DFF80CD001F0BCFA004800477914000841
:100140006004002010B5012000F014FC002000F035
:1001500011FC10BD2A49086070472949091F086031
:100160007047274984310860704701460020254ABE
:1001700010884FF67F4210400843224A1080704793
:10018000014600201F4A10884FF680721040084335
:100190001C4A1080704708B500220092194A2C3A78
:1001A0000092009A02440092009A116008BD08B5BE
:1001B00001460020009013482C3800900098084415
:1001C00000900098008808BD0D489C300068C0B2BF
:1001D00070470C480830008840F001000949083198
:1001E000088070470648A0300068C0B270470548D4
:1001F0000830008840F0020002490831088070474A
:1002000004860D422C6C004010B50446CC48844254
:1002100008D10121042000F093FB0021042000F00C
:100220008FFB46E0C748844208D10121082000F036
:1002300087FB0021082000F083FB3AE0C24884429B
:1002400008D10121102000F07BFB0021102000F0DC
:1002500077FB2EE0BD48844208D10121202000F028
:100260006FFB0021202000F06BFB22E0B8488442A5
:1002700008D10121402000F063FB0021402000F064
:100280005FFB16E0B348844208D10121802000F0D2
:1002900057FB0021802000F053FB0AE0AE48844267
:1002A00007D10121801500F04BFB0021A01500F0C3
:1002B00047FB10BD10B50121084600F041FB0021AD
:1002C000012000F03DFB10BD2DE9F0410246002564
:1002D0000026002000230024002791F803C00CF022
:1002E0000F0591F803C00CF0100CBCF1000F03D007
:1002F00091F802C04CEA050591F800C0BCF1000F6E
:1003000031D0146800202BE04FF0010C0CFA00F300
:10031000B1F800C00CEA03069E4220D183004FF0E2
:100320000F0C0CFA03F7BC4305FA03FC4CEA040477
:1003300091F803C0BCF1280F06D14FF0010C0CFA64
:1003400000FCC2F814C00AE091F803C0BCF1480FE9
:1003500005D14FF0010C0CFA00FCC2F810C0401C93
:100360000828D1D31460B1F800C0BCF1FF0F34DD10
:10037000546800202EE000F1080C4FF0010808FA44
:100380000CF3B1F800C00CEA03069E4221D18300B1
:100390004FF00F0C0CFA03F7BC4305FA03FC4CEAD0
:1003A000040491F803C0BCF1280F05D100F1080C3A
:1003B00008FA0CF8C2F8148091F803C0BCF1480F99
:1003C00007D100F1080C4FF0010808FA0CF8C2F848
:1003D0001080401C0828CED35460BDE8F0814FF651
:1003E000FF710180022181700421C17070470246B3
:1003F000002093680B400BB1012000E00020704703
:100400000146886880B2704702460020D3680B40DE
:100410000BB1012000E0002070470146C86880B29F
:10042000704701617047416170470AB1016100E0A6
:1004300041617047C16070474FF480320A43826166
:100440008161826182698269704702460020434B64
:1004500018684FF68073184040EA021008433F4B7B
:10046000186070473E49C8617047F0B50A460023DE
:1004700000240021002500F00046B6F1004F02D113
:10048000364EF16901E0354E7168C0F3034583B221
:1004900000F44016B6F5401F08D121F070612F4ED0
:1004A000766826F070662D4F7E6012E000F48016AC
:1004B000B6F5801F06D1032606FA05F4A14341F0E4
:1004C000706106E0460D360103FA06F6B14341F0CD
:1004D000706122B1460D360103FA06F6314300F091
:1004E0000046B6F1004F02D11C4EF16101E01B4EF7
:1004F0007160F0BD30B500228B071C0F0F2303FA8B
:1005000004F2164B08338C1053F824309343134CE9
:1005100008348D1044F8253023468C1053F82430CD
:100520008C07240F00FA04F423430C4C08348D107C
:1005300044F8253030BD0A49DC31086070470000BE
:1005400000080140000C014000100140001401406F
:1005500000180140001C0140002001400000014043
:100560000000204210B50121080700F0F6F9002133
:100570004FF0805000F0F1F910BD2A490862704731
:1005800028490861704701460020274A106820F07A
:10059000E0000843106070472249A03108607047AE
:1005A00010B502460020204B186820F003001043CD
:1005B00018601E4B1B6843F004031C4C2360012988
:1005C00001D130BF00E020BF184B1B6823F00403AB
:1005D000164C236010BD1448006840F00400124916
:1005E00008600846006840F0020008600F48006894
:1005F00040F004000D49086000BF00BF30BF7047E5
:1006000001460020084A52680A400AB1012000E071
:10061000002070470449096841EA8001024A1160DC
:100620007047000000000E420070004010ED00E036
:10063000DF48006840F00100DD4908600846406876
:10064000DC490840DA49486008460068DA49084051
:10065000D74908600846006820F4802008600846F2
:10066000406820F4FE0048604FF41F008860704727
:10067000CF49096821F48031CD4A116011460968DB
:1006800021F480211160B0F5803F03D0B0F5802FB8
:100690000ED106E0C649096841F48031C44A1160B0
:1006A00007E0C349096841F4A021C14A116000E094
:1006B00000BF00BF704710B5014600220023002094
:1006C0004A11012A02D1BA4C236806E0022A02D15B
:1006D000B74C236A01E0B64C636A01F01F020124A3
:1006E00094401C400CB1012000E0002010BD38B542
:1006F000002000900024002500BF3120FFF7DBFF21
:1007000005460098401C00900098B0F5A06F01D0FD
:10071000002DF2D03120FFF7CEFF08B1012400E018
:100720000024204638BD01460020A14A106820F070
:10073000F80040EAC10010607047A04908607047A7
:10074000024600209A4B586820F47C1042EA0103CC
:100750001843974B586070479849086670470146A0
:100760000020934A506820F003000843506070470F
:100770008F48406800F00C007047014600208C4A0A
:10078000506820F0F0000843506070470146002098
:10079000874A506820F4E060084350607047014683
:1007A0000020834A506820F4605040EAC100506045
:1007B000704729B17E4A527A02437D4B5A7204E057
:1007C0007B4A527A82437A4B5A7270477B49D831BE
:1007D0000860704701460020754A506820F4404088
:1007E0000843506070470021714A20321170704AEE
:1007F00082F82010012802D004280AD104E0012147
:100800006B4A2032117005E00521694A20321170CF
:1008100000E000BF00BF7047694908607047644945
:10082000096A0143624A11627047654944390860A8
:10083000704730B500210022002400235C4D6D6814
:1008400005F00C0121B1042905D0082923D105E0C8
:100850005C4D056022E05B4D05601FE0544D6D6806
:1008600005F47012524D6D6805F48034022505EBD5
:1008700092421CB9544D554305600BE04C4D6D68D8
:1008800005F400351DB1504D5543056002E04D4D56
:100890005543056002E04B4D056000BF00BF444D6D
:1008A0006D6805F0F0010909484D6B5C0568DD4095
:1008B00045603F4D6D6805F4E061090A434D6B5C8E
:1008C0004568DD4085603A4D6D6805F46051C90AA0
:1008D0003E4D6B5C4568DD40C560354D6D6805F487
:1008E0004041890B3A4D6B5CC568B5FBF3F505617A
:1008F00030BD29B12E4A526902432D4B5A6104E0A2
:100900002B4A526982432A4B5A61704729B1284ABF
:1009100092690243264B9A6104E0254A9269824318
:10092000234B9A61704729B1214AD2690243204B77
:10093000DA6104E01E4AD26982431D4BDA617047D6
:1009400029B11B4AD2680243194BDA6004E0184A05
:10095000D2688243164BDA60704729B1144A126993
:100960000243134B1A6104E0114A12698243104B8F
:100970001A61704712494039086070470F49C864CE
:1009800070470B49C87170470948406A40F0807051
:1009900007494862704701460020054A92680A40AC
:1009A0000AB1012000E000207047014988727047B9
:1009B000001002400000FFF8FFFFF6FE0000424278
:1009C0008004424200127A0000093D00000000202D
:1009D0001000002029B1504A128802434E4B1A8061
:1009E00004E04D4A128882434B4B1A8070474A48B4
:1009F000001D008840F010004749091D088070471D
:100A00004548001D00884FF6EF7108404249091D16
:100A100008807047002140481C300188001F008872
:100A200041EA0040704700B50246FFF7E0FF100CB6
:100A3000394918310880091D0A80FFF7E1FF00BD20
:100A400000B50246FFF7D3FFC2F303403249083135
:100A50000880091D0A80FFF7D3FF00BD00B50246DC
:100A6000FFF7C5FF100C2C4920310880091D0A80B2
:100A7000FFF7C6FF00BD002027491031098809078C
:100A8000080B2549143109880843704700BF2248E4
:100A9000001D008800F020000028F8D070471E4894
:100AA000001D00884FF6F77108401B49091D08809A
:100AB00000BF1948001D008800F008000028F8D089
:100AC000704701460020144A121D12880A400AB1DC
:100AD000012000E0002070470F49091D098881436B
:100AE0000D4A121D11807047014600200A4A121D4E
:100AF00012880A40D0B2084A12880A4012B108B1DE
:100B0000012000E0002070470349091D0988814346
:100B1000014A121D118070470028004010B504469C
:100B2000FB48844209D101218803FFF709FF002116
:100B30004FF48040FFF704FF32E0F648844209D1C9
:100B400001214804FFF709FF00214FF40030FFF7AF
:100B500004FF25E0F048844209D101218804FFF711
:100B6000FCFE00214FF48020FFF7F7FE18E0EB4871
:100B7000844209D10121C804FFF7EFFE00214FF4A0
:100B80000020FFF7EAFE0BE0E548844208D101218E
:100B90000805FFF7E2FE00214FF48010FFF7DDFEAD
:100BA00010BD2DE9F04786B005460E460024A2464A
:100BB00000BFA1460027B08900B100BF2F462C8A94
:100BC0004CF6FF700440F08804432C82AC894EF64A
:100BD000F3100440B0883189084371890843044305
:100BE000AC81AC8A4FF6FF400440B0890443AC822C
:100BF00001A8FFF71EFEC648874202D1DDF810A00B
:100C000001E0DDF80CA0A88900F4004040B10AEB37
:100C1000CA0000EB0A1031684900B0FBF1F807E0A8
:100C20000AEBCA0000EB0A1031688900B0FBF1F84A
:100C30006420B8FBF0F004012009642101FB108955
:100C4000A88900F4004040B1322000EBC900B0FB9D
:100C5000F1F000F00700044308E0322000EB091037
:100C60006421B0FBF1F000F00F0004432C8106B0CA
:100C7000BDE8F0874FF41651016000218180C180EA
:100C800001810C21418100218181704710B502460C
:100C90000020108A4FF2FF0318400B884C88234332
:100CA0008C882343CC8823431843108210BD002135
:100CB000018041808180C180704721B1828942F4E6
:100CC0000052828104E082894DF6FF731A408281CE
:100CD0007047F0B50346002400260025002040F6AA
:100CE0006A17B94200D100BF1846C1F3421401F09F
:100CF0001F06012707FA06F5012C01D10C3004E08C
:100D0000022C01D1103000E014301AB107682F43D3
:100D1000076002E00768AF430760F0BD1AB1838A3D
:100D20000B43838202E0838A8B4383827047028A6B
:100D30004FF6F0731A400282028A0A430282704719
:100D400082894FF2FF731A40828182890A4382812D
:100D5000704721B1828942F00202828104E08289D7
:100D60004FF6FD731A4082817047028A4FF6DF7397
:100D70001A400282028A0A430282704721B1028A23
:100D800042F48042028204E0028A4BF6FF731A406A
:100D900002827047C1F3080282807047014688884A
:100DA000C0F308007047818941F0010181817047DB
:100DB000028BD2B20283028B42EA01220283704785
:100DC000028B02F47F420283028B0A430283704744
:100DD00021B1828A42F02002828204E0828A4FF6A8
:100DE000DF731A408282704721B1828A42F010027A
:100DF000828204E0828A4FF6EF731A408282704743
:100E000021B1828A42F00802828204E0828A4FF68F
:100E1000F7731A408282704721B1828942F40042FE
:100E2000828103E08289C2F30E028281704721B180
:100E3000828A42F40062828204E0828A4FF2FF7367
:100E40001A4082827047828A4FF6FB731A40828270
:100E5000828A0A438282704721B1828A42F002026A
:100E6000828204E0828A4FF6FD731A4082827047C4
:100E700002460020B1F5007F00D100BF13880B406F
:100E80000BB1012000E00020704701F40072B2F5C0
:100E9000007F00D100BFCA430280704770B5024690
:100EA000002400230025002040F66A16B14200D13C
:100EB00000BFC1F3421501F01F03012606FA03F338
:100EC000012D02D19689334006E0022D02D1168A07
:100ED000334001E0968A33400C12012606FA04F4EE
:100EE0001688344013B10CB1012000E0002070BD21
:100EF00010B50022002340F66A14A14200D100BFC1
:100F00000A1201249440A3B2DC43048010BD000007
:100F1000003801400044004000480040004C0040C0
:100F2000005000400CB50020019000906C48006813
:100F300040F480306A49086000BF6948006800F4E6
:100F4000003000900198401C0190009818B9019859
:100F5000B0F5A06FF1D16248006800F4003010B124
:100F60000120009001E0002000900098012843D16A
:100F70005C48006840F010005A4908600846006864
:100F800020F0030008600846006840F00200086096
:100F900053484068524948600846406848600846DF
:100FA000406840F4806048600846406820F47C1047
:100FB00048600846406840F4E81048600846006809
:100FC00040F08070086000BF4548006800F0007085
:100FD0000028F9D04248406820F0030040494860AA
:100FE0000846406840F00200486000BF3C48406846
:100FF00000F00C000828F9D10CBD10B5FFF792FFE6
:1010000010BD10B53648006840F001003449086052
:10101000084640683449084031494860084600683D
:10102000324908402E4908600846006820F48020B4
:1010300008600846406820F4FE0048604FF41F0036
:101040008860FFF7DAFF4FF000602949086010BDA3
:1010500010B5002100200022214B5B6803F00C0139
:1010600021B1042906D0082928D107E0214B224CC0
:10107000236027E01F4B204C236023E0184B5B6864
:1010800003F47010164B5B6803F48032022303EB09
:10109000904022B9194B4343174C23600DE0104B8D
:1010A0005B6803F4003323B1144B4343124C2360B9
:1010B00003E0104B4343104C236003E00D4B0E4CF8
:1010C000236000BF00BF064B5B68C3F303130C4CE7
:1010D000E15C094B1B68CB40074C236010BD00004E
:1010E00000100240002002400000FFF8FFFFF6FE63
:1010F00008ED00E000127A001400002000093D0015
:10110000180000200648804706480047FEE7FEE733
:10111000FEE7FEE7FEE7FEE7FEE7FEE7FEE7FEE7A7
:10112000031000083101000830B5264800684FF46C
:101130007A72B0FBF2F1B1F1807F01D301201DE0A2
:1011400021F07F40401E4FF0E022506150170F22E7
:10115000002807DA13071D0E1B4B00F00F04241F95
:101160001D5503E013071C0E184B1C5400BF002034
:101170004FF0E022906107201061002008B100BF0D
:10118000FEE730BD1249086000BF11490968002917
:10119000FBD17047002106E0082100BF0A1EA1F123
:1011A000010399B2FAD1021EA0F10100F4D17047F7
:1011B0000748006820B106480068401E04490860DE
:1011C000704700001400002018ED00E000E400E08B
:1011D0002800002000B585B001218803FFF796FBA9
:1011E0004FF4E13000900020ADF80400ADF80600A7
:1011F000ADF80800ADF80C000C20ADF80A00694607
:101200003048FFF7CEFC01210420FFF77FFB1820B8
:101210008DF8130003208DF812004FF40070ADF824
:10122000100004A92848FFF74FF848208DF8130054
:1012300003208DF812004FF48060ADF8100004A96F
:101240002148FFF741F8002240F225511D48FFF7E1
:1012500040FD002240F227711A48FFF73AFD0022B4
:1012600040F226611748FFF734FD01211548FFF7CA
:1012700024FD05B000BD70B504460D461148008838
:10128000E1B21048FFF786FD00BF40210D48FFF78F
:10129000EFFD0028F9D0204670BD70B504460D461C
:1012A0000BE014F8011B0748FFF774FD00BF402155
:1012B0000448FFF7DDFD0028F9D0281EA5F101053F
:1012C000EFD170BD003801400008014010B5042086
:1012D000FEF76DFF4AF2A55188422FD001214FF051
:1012E000C050FFF720FB0120FFF747F9FEF72AFF68
:1012F0000120FFF778FA00BF4120FFF7DCF9002852
:10130000FAD04FF48070FFF78AFA0120FFF78DFAC8
:10131000FFF7C5FBFFF7BAFB01210846FFF75AFBB1
:10132000FFF7B4FB47F6FF70FFF78AFBFFF7AEFB52
:101330004AF2A5510420FEF72EFF09E0FFF7AFFBAC
:1013400001214FF0C050FFF7EEFA0120FFF715F929
:101350000020FEF702FF10BD10B590B0FFF75AFB5A
:10136000049004A800F058F9044660690A902069C6
:101370000990E0680890A06807906068069020686F
:101380000590DDE906210598CDE900120290DDE91E
:101390000830421C0A9800F26C7118A000F09AF90B
:1013A00010B010BD2DE9F04F8BB00446002500268B
:1013B0000027A846A946AA4625686668A768D4F803
:1013C0000C80D4F81090D4F814A0AAF26C70059098
:1013D000A9F101000490CDF80C80029701960095C8
:1013E000684600F09DF88346FFF750FB5846FFF72C
:1013F0001AFBFFF74BFB0BB0BDE8F08F4E6F772069
:1014000069733A4265696A696E672054696D65203F
:1014100025642D25642D256420253032643A25303D
:1014200032643A253032640D0A00000008B501210B
:101430001020FFF76BFA0F20ADF8000010208DF898
:10144000030003208DF8020069460A48FEF73CFFBE
:1014500001210848FEF7E5FF02210648FEF7E1FFFB
:1014600004210448FEF7DDFF08210248FEF7D9FFFA
:1014700008BD0000001001408AB024220D4901A8D7
:1014800000F0A2F8FFF7BDFDFFF74EFEFFF7CEFF1D
:10149000FFF7A0FEFFF71AFF01A8FFF783FF06A0E2
:1014A00000F018F905E04FF47A70FFF76BFEFFF7D4
:1014B00053FFF8E7581A00085254432054657374D8
:1014C0000D0A0000704700BFFEE700BFFEE700BF47
:1014D000FEE700BFFEE770477047704710B5FFF7A3
:1014E00067FE0D480068401C0B490860084600680C
:1014F000B0F5FA7F0FD90020086001210748FEF7F8
:1015000083FF08B9012000E00020044622460121A3
:101510000248FEF78AFF10BD2C0000200010014099
:1015200038B5D0E90221491E01EB410102EBC101AE
:101530004268C1EB011102EB81010268C1EB0111AC
:1015400002EB8102D0E9043101EB410103EB81019F
:101550003023A1F5527191FBF3F4174D6C4302EB6C
:10156000C41291FBF3F403FB141100921A2902DB5D
:10157000124B1A4400920C2291FBF2F3104C63437D
:10158000009C04EBC313009391FBF2F302FB1311D5
:101590000C4A08E0491E40F2A324535C6343009CBC
:1015A00004EBC31300930029F4DC0146684600F005
:1015B00039F8009838BD00003F0C0F008051010041
:1015C00067C203007C1A000840EA01039B0703D0AE
:1015D00009E008C9121F08C0042AFAD203E011F872
:1015E000013B00F8013B521EF9D2704730B50B4663
:1015F000014600202022012409E021FA02F59D4243
:1016000005D303FA02F5491B04FA02F52844151E16
:10161000A2F10102F1DC30BD014900F003B8000085
:101620003400002010B500683C22B0FBF2F302FB4E
:101630001303B0FBF2F00B60B0FBF2F302FB1303F9
:10164000B0FBF2F018224B60B0FBF2F302FB130385
:10165000B0FBF2F0021D8B600723B2FBF3F403FB37
:101660001422800040F2B55300F66C308A61B0FB62
:10167000F3F2B0FBF3F403FB1400443280084A6138
:10168000C8613B2802D3920700D0401C0022074CBF
:1016900013460A61E25C824203D8801A5B1C0B612C
:1016A000F8E7401CC860084610BD0000881A000812
:1016B000064C074D06E0E06840F0010394E807009F
:1016C00098471034AC42F6D3FEF736FD941A000862
:1016D000B41A00080FB4054B10B503A9044A0298C8
:1016E00000F018F810BC5DF814FB00007712000839
:1016F0003000002002E008C8121F08C1002AFAD1F9
:1017000070477047002001E001C1121F002AFBD181
:10171000704700002DE9FF4F8BB088460546002634
:1017200006E025280BD0DDE90D1290476D1C761CD4
:1017300028780028F5D10FB03046BDE8F08F00249E
:10174000A146A2460122AE4900E0044315F8013F3C
:10175000203B02FA03F00842F7D128782A2810D05B
:101760006FF02F022878A0F13001092915D809EB74
:10177000890102EB410144F0020400EB01096D1CF8
:10178000F0E758F8041B5FEA010903D544F400545C
:10179000C9F1000944F002046D1C28782E2817D1E5
:1017A00015F8010F44F004042A280ED06FF02F0220
:1017B0002878A0F1300109290AD80AEB8A0102EB46
:1017C000410100EB010A6D1CF2E758F804AB6D1CF7
:1017D00028786C280FD006DC4C2817D068280DD04C
:1017E0006A2814D104E0742810D07A280FD10DE0B3
:1017F00044F400140AE044F4801401E044F440147A
:101800006978814202D104F580146D1C6D1C287822
:10181000692865D006DC00288DD0632827D064288D
:1018200006D15DE06E2808D073282AD0752877D0BD
:10183000DDE90D129047761CE0E0C4F30250022867
:1018400009D003280DD0D8F8001004280DD00E6060
:1018500008F10408D2E0D8F80010F217C1E90062DC
:10186000F6E7D8F800100E80F2E70E70F0E718F8EF
:10187000041B8DF8001000208DF80100EB460120BC
:1018800003E058F804BB4FF0FF3061074FF000074A
:1018900001D40AE07F1C57450DDA8742FADB1BF8BA
:1018A00007100029F6D106E07F1C8742FCDB1BF8FD
:1018B00007100029F8D1DDE90D23A9EB07008146C7
:1018C000214600F0B1F83044C61904E0DDE90D12FC
:1018D0001BF8010B90477F1EF8D22146484688E04E
:1018E00058F8040BC4F302514FF00A0B032900D13E
:1018F00000B2042900D140B2002802DA40422D2172
:1019000002E0210505D52B218DF82410012104E0EA
:1019100006E0E10710D02021F6E708AF089113E0B8
:1019200058F8040BC4F302514FF00A0B032900D1FD
:1019300080B2042900D1C0B20021EEE75946FFF77A
:1019400055FE303107F8011D0028F7D1ADEB070037
:1019500000F1200B600702D524F4803401E04FF041
:10196000010ADA4502DDAAEB0B0000E00020824606
:1019700000EB0B0108980144A9EB01000A90E00379
:1019800006D4DDE90D2321460A9800F04DF80644FF
:101990004FF0000908E009A911F80900DDE90D126E
:1019A000904709F10109761C08998945F3DBE003AA
:1019B0000CD5DDE90D2321460A9800F035F80644E0
:1019C00004E0DDE90D1230209047761CBAF10001E9
:1019D000AAF1010AF5DC05E0DDE90D1217F8010BAB
:1019E0009047761CBBF10001ABF1010BF4DC0A98C7
:1019F0002146DDE90D2300F005F806446D1C97E64D
:101A0000092801002DE9F041044600251E4617462D
:101A1000880404D405E039462020B0476D1C641EBC
:101A2000F9D52846BDE8F0812DE9F04104460025AE
:101A30001E469046C80301D5302700E020278804C1
:101A400004D505E041463846B0476D1C641EF9D503
:101A50002846BDE8F0810000000000000000000002
:101A6000000000000100000001000000E10700008C
:101A70000100000001000000000000001F1C1F1EEC
:101A80001F1E1F1F1E1F1E1F1F1D1F1E1F1E1F1F6D
:101A90001E1F1E1FB41A00080000002034000000A2
:101AA000F4160008E81A0008340000202C04000096
:101AB00004170008000000000102030401020304EF
:101AC000060708090204060800A24A0400000000F4
:101AD00000000000010203040607080900000000DE
:081AE0000000000000000000FE
:0400000508001105D9
:00000001FF
